{
  "contractName": "NFT",
  "abi": [
    {
      "inputs": [
        {
          "internalType": "string",
          "name": "name",
          "type": "string"
        },
        {
          "internalType": "string",
          "name": "symbol",
          "type": "string"
        }
      ],
      "stateMutability": "nonpayable",
      "type": "constructor"
    },
    {
      "anonymous": false,
      "inputs": [
        {
          "indexed": true,
          "internalType": "address",
          "name": "owner",
          "type": "address"
        },
        {
          "indexed": true,
          "internalType": "address",
          "name": "approved",
          "type": "address"
        },
        {
          "indexed": true,
          "internalType": "uint256",
          "name": "tokenId",
          "type": "uint256"
        }
      ],
      "name": "Approval",
      "type": "event"
    },
    {
      "anonymous": false,
      "inputs": [
        {
          "indexed": true,
          "internalType": "address",
          "name": "owner",
          "type": "address"
        },
        {
          "indexed": true,
          "internalType": "address",
          "name": "operator",
          "type": "address"
        },
        {
          "indexed": false,
          "internalType": "bool",
          "name": "approved",
          "type": "bool"
        }
      ],
      "name": "ApprovalForAll",
      "type": "event"
    },
    {
      "anonymous": false,
      "inputs": [
        {
          "indexed": true,
          "internalType": "address",
          "name": "from",
          "type": "address"
        },
        {
          "indexed": true,
          "internalType": "address",
          "name": "to",
          "type": "address"
        },
        {
          "indexed": true,
          "internalType": "uint256",
          "name": "tokenId",
          "type": "uint256"
        }
      ],
      "name": "Transfer",
      "type": "event"
    },
    {
      "inputs": [
        {
          "internalType": "address",
          "name": "to",
          "type": "address"
        },
        {
          "internalType": "uint256",
          "name": "tokenId",
          "type": "uint256"
        }
      ],
      "name": "approve",
      "outputs": [],
      "stateMutability": "nonpayable",
      "type": "function"
    },
    {
      "inputs": [
        {
          "internalType": "address",
          "name": "owner",
          "type": "address"
        }
      ],
      "name": "balanceOf",
      "outputs": [
        {
          "internalType": "uint256",
          "name": "",
          "type": "uint256"
        }
      ],
      "stateMutability": "view",
      "type": "function"
    },
    {
      "inputs": [
        {
          "internalType": "uint256",
          "name": "tokenId",
          "type": "uint256"
        }
      ],
      "name": "getApproved",
      "outputs": [
        {
          "internalType": "address",
          "name": "",
          "type": "address"
        }
      ],
      "stateMutability": "view",
      "type": "function"
    },
    {
      "inputs": [
        {
          "internalType": "address",
          "name": "owner",
          "type": "address"
        },
        {
          "internalType": "address",
          "name": "operator",
          "type": "address"
        }
      ],
      "name": "isApprovedForAll",
      "outputs": [
        {
          "internalType": "bool",
          "name": "",
          "type": "bool"
        }
      ],
      "stateMutability": "view",
      "type": "function"
    },
    {
      "inputs": [],
      "name": "name",
      "outputs": [
        {
          "internalType": "string",
          "name": "",
          "type": "string"
        }
      ],
      "stateMutability": "view",
      "type": "function"
    },
    {
      "inputs": [
        {
          "internalType": "uint256",
          "name": "tokenId",
          "type": "uint256"
        }
      ],
      "name": "ownerOf",
      "outputs": [
        {
          "internalType": "address",
          "name": "",
          "type": "address"
        }
      ],
      "stateMutability": "view",
      "type": "function"
    },
    {
      "inputs": [
        {
          "internalType": "address",
          "name": "from",
          "type": "address"
        },
        {
          "internalType": "address",
          "name": "to",
          "type": "address"
        },
        {
          "internalType": "uint256",
          "name": "tokenId",
          "type": "uint256"
        }
      ],
      "name": "safeTransferFrom",
      "outputs": [],
      "stateMutability": "nonpayable",
      "type": "function"
    },
    {
      "inputs": [
        {
          "internalType": "address",
          "name": "from",
          "type": "address"
        },
        {
          "internalType": "address",
          "name": "to",
          "type": "address"
        },
        {
          "internalType": "uint256",
          "name": "tokenId",
          "type": "uint256"
        },
        {
          "internalType": "bytes",
          "name": "_data",
          "type": "bytes"
        }
      ],
      "name": "safeTransferFrom",
      "outputs": [],
      "stateMutability": "nonpayable",
      "type": "function"
    },
    {
      "inputs": [
        {
          "internalType": "address",
          "name": "operator",
          "type": "address"
        },
        {
          "internalType": "bool",
          "name": "approved",
          "type": "bool"
        }
      ],
      "name": "setApprovalForAll",
      "outputs": [],
      "stateMutability": "nonpayable",
      "type": "function"
    },
    {
      "inputs": [
        {
          "internalType": "bytes4",
          "name": "interfaceId",
          "type": "bytes4"
        }
      ],
      "name": "supportsInterface",
      "outputs": [
        {
          "internalType": "bool",
          "name": "",
          "type": "bool"
        }
      ],
      "stateMutability": "view",
      "type": "function"
    },
    {
      "inputs": [],
      "name": "symbol",
      "outputs": [
        {
          "internalType": "string",
          "name": "",
          "type": "string"
        }
      ],
      "stateMutability": "view",
      "type": "function"
    },
    {
      "inputs": [
        {
          "internalType": "uint256",
          "name": "tokenId",
          "type": "uint256"
        }
      ],
      "name": "tokenURI",
      "outputs": [
        {
          "internalType": "string",
          "name": "",
          "type": "string"
        }
      ],
      "stateMutability": "view",
      "type": "function"
    },
    {
      "inputs": [
        {
          "internalType": "address",
          "name": "from",
          "type": "address"
        },
        {
          "internalType": "address",
          "name": "to",
          "type": "address"
        },
        {
          "internalType": "uint256",
          "name": "tokenId",
          "type": "uint256"
        }
      ],
      "name": "transferFrom",
      "outputs": [],
      "stateMutability": "nonpayable",
      "type": "function"
    },
    {
      "inputs": [
        {
          "internalType": "address",
          "name": "to",
          "type": "address"
        },
        {
          "internalType": "uint256",
          "name": "tokenId",
          "type": "uint256"
        }
      ],
      "name": "mint",
      "outputs": [],
      "stateMutability": "nonpayable",
      "type": "function"
    }
  ],
  "bytecode": "0x60806040523480156200001157600080fd5b5060405162002a1a38038062002a1a833981810160405281019062000037919062000197565b818181600090805190602001906200005192919062000075565b5080600190805190602001906200006a92919062000075565b50505050506200037a565b82805462000083906200029f565b90600052602060002090601f016020900481019282620000a75760008555620000f3565b82601f10620000c257805160ff1916838001178555620000f3565b82800160010185558215620000f3579182015b82811115620000f2578251825591602001919060010190620000d5565b5b50905062000102919062000106565b5090565b5b808211156200012157600081600090555060010162000107565b5090565b60006200013c620001368462000233565b6200020a565b9050828152602081018484840111156200015557600080fd5b6200016284828562000269565b509392505050565b600082601f8301126200017c57600080fd5b81516200018e84826020860162000125565b91505092915050565b60008060408385031215620001ab57600080fd5b600083015167ffffffffffffffff811115620001c657600080fd5b620001d4858286016200016a565b925050602083015167ffffffffffffffff811115620001f257600080fd5b62000200858286016200016a565b9150509250929050565b60006200021662000229565b9050620002248282620002d5565b919050565b6000604051905090565b600067ffffffffffffffff8211156200025157620002506200033a565b5b6200025c8262000369565b9050602081019050919050565b60005b83811015620002895780820151818401526020810190506200026c565b8381111562000299576000848401525b50505050565b60006002820490506001821680620002b857607f821691505b60208210811415620002cf57620002ce6200030b565b5b50919050565b620002e08262000369565b810181811067ffffffffffffffff821117156200030257620003016200033a565b5b80604052505050565b7f4e487b7100000000000000000000000000000000000000000000000000000000600052602260045260246000fd5b7f4e487b7100000000000000000000000000000000000000000000000000000000600052604160045260246000fd5b6000601f19601f8301169050919050565b612690806200038a6000396000f3fe608060405234801561001057600080fd5b50600436106100ea5760003560e01c80636352211e1161008c578063a22cb46511610066578063a22cb4651461025b578063b88d4fde14610277578063c87b56dd14610293578063e985e9c5146102c3576100ea565b80636352211e146101dd57806370a082311461020d57806395d89b411461023d576100ea565b8063095ea7b3116100c8578063095ea7b31461016d57806323b872dd1461018957806340c10f19146101a557806342842e0e146101c1576100ea565b806301ffc9a7146100ef57806306fdde031461011f578063081812fc1461013d575b600080fd5b61010960048036038101906101049190611892565b6102f3565b6040516101169190611c52565b60405180910390f35b6101276103d5565b6040516101349190611c6d565b60405180910390f35b610157600480360381019061015291906118e4565b610467565b6040516101649190611beb565b60405180910390f35b61018760048036038101906101829190611856565b6104ec565b005b6101a3600480360381019061019e9190611750565b610604565b005b6101bf60048036038101906101ba9190611856565b610664565b005b6101db60048036038101906101d69190611750565b610672565b005b6101f760048036038101906101f291906118e4565b610692565b6040516102049190611beb565b60405180910390f35b610227600480360381019061022291906116eb565b610744565b6040516102349190611e4f565b60405180910390f35b6102456107fc565b6040516102529190611c6d565b60405180910390f35b6102756004803603810190610270919061181a565b61088e565b005b610291600480360381019061028c919061179f565b610a0f565b005b6102ad60048036038101906102a891906118e4565b610a71565b6040516102ba9190611c6d565b60405180910390f35b6102dd60048036038101906102d89190611714565b610b18565b6040516102ea9190611c52565b60405180910390f35b60007f80ac58cd000000000000000000000000000000000000000000000000000000007bffffffffffffffffffffffffffffffffffffffffffffffffffffffff1916827bffffffffffffffffffffffffffffffffffffffffffffffffffffffff191614806103be57507f5b5e139f000000000000000000000000000000000000000000000000000000007bffffffffffffffffffffffffffffffffffffffffffffffffffffffff1916827bffffffffffffffffffffffffffffffffffffffffffffffffffffffff1916145b806103ce57506103cd82610bac565b5b9050919050565b6060600080546103e490612074565b80601f016020809104026020016040519081016040528092919081815260200182805461041090612074565b801561045d5780601f106104325761010080835404028352916020019161045d565b820191906000526020600020905b81548152906001019060200180831161044057829003601f168201915b5050505050905090565b600061047282610c16565b6104b1576040517f08c379a00000000000000000000000000000000000000000000000000000000081526004016104a890611daf565b60405180910390fd5b6004600083815260200190815260200160002060009054906101000a900473ffffffffffffffffffffffffffffffffffffffff169050919050565b60006104f782610692565b90508073ffffffffffffffffffffffffffffffffffffffff168373ffffffffffffffffffffffffffffffffffffffff161415610568576040517f08c379a000000000000000000000000000000000000000000000000000000000815260040161055f90611e0f565b60405180910390fd5b8073ffffffffffffffffffffffffffffffffffffffff16610587610c82565b73ffffffffffffffffffffffffffffffffffffffff1614806105b657506105b5816105b0610c82565b610b18565b5b6105f5576040517f08c379a00000000000000000000000000000000000000000000000000000000081526004016105ec90611d2f565b60405180910390fd5b6105ff8383610c8a565b505050565b61061561060f610c82565b82610d43565b610654576040517f08c379a000000000000000000000000000000000000000000000000000000000815260040161064b90611e2f565b60405180910390fd5b61065f838383610e21565b505050565b61066e828261107d565b5050565b61068d83838360405180602001604052806000815250610a0f565b505050565b6000806002600084815260200190815260200160002060009054906101000a900473ffffffffffffffffffffffffffffffffffffffff169050600073ffffffffffffffffffffffffffffffffffffffff168173ffffffffffffffffffffffffffffffffffffffff16141561073b576040517f08c379a000000000000000000000000000000000000000000000000000000000815260040161073290611d6f565b60405180910390fd5b80915050919050565b60008073ffffffffffffffffffffffffffffffffffffffff168273ffffffffffffffffffffffffffffffffffffffff1614156107b5576040517f08c379a00000000000000000000000000000000000000000000000000000000081526004016107ac90611d4f565b60405180910390fd5b600360008373ffffffffffffffffffffffffffffffffffffffff1673ffffffffffffffffffffffffffffffffffffffff168152602001908152602001600020549050919050565b60606001805461080b90612074565b80601f016020809104026020016040519081016040528092919081815260200182805461083790612074565b80156108845780601f1061085957610100808354040283529160200191610884565b820191906000526020600020905b81548152906001019060200180831161086757829003601f168201915b5050505050905090565b610896610c82565b73ffffffffffffffffffffffffffffffffffffffff168273ffffffffffffffffffffffffffffffffffffffff161415610904576040517f08c379a00000000000000000000000000000000000000000000000000000000081526004016108fb90611cef565b60405180910390fd5b8060056000610911610c82565b73ffffffffffffffffffffffffffffffffffffffff1673ffffffffffffffffffffffffffffffffffffffff16815260200190815260200160002060008473ffffffffffffffffffffffffffffffffffffffff1673ffffffffffffffffffffffffffffffffffffffff16815260200190815260200160002060006101000a81548160ff0219169083151502179055508173ffffffffffffffffffffffffffffffffffffffff166109be610c82565b73ffffffffffffffffffffffffffffffffffffffff167f17307eab39ab6107e8899845ad3d59bd9653f200f220920489ca2b5937696c3183604051610a039190611c52565b60405180910390a35050565b610a20610a1a610c82565b83610d43565b610a5f576040517f08c379a0000000000000000000000000000000000000000000000000000000008152600401610a5690611e2f565b60405180910390fd5b610a6b8484848461124b565b50505050565b6060610a7c82610c16565b610abb576040517f08c379a0000000000000000000000000000000000000000000000000000000008152600401610ab290611def565b60405180910390fd5b6000610ac56112a7565b90506000815111610ae55760405180602001604052806000815250610b10565b80610aef846112be565b604051602001610b00929190611bc7565b6040516020818303038152906040525b915050919050565b6000600560008473ffffffffffffffffffffffffffffffffffffffff1673ffffffffffffffffffffffffffffffffffffffff16815260200190815260200160002060008373ffffffffffffffffffffffffffffffffffffffff1673ffffffffffffffffffffffffffffffffffffffff16815260200190815260200160002060009054906101000a900460ff16905092915050565b60007f01ffc9a7000000000000000000000000000000000000000000000000000000007bffffffffffffffffffffffffffffffffffffffffffffffffffffffff1916827bffffffffffffffffffffffffffffffffffffffffffffffffffffffff1916149050919050565b60008073ffffffffffffffffffffffffffffffffffffffff166002600084815260200190815260200160002060009054906101000a900473ffffffffffffffffffffffffffffffffffffffff1673ffffffffffffffffffffffffffffffffffffffff1614159050919050565b600033905090565b816004600083815260200190815260200160002060006101000a81548173ffffffffffffffffffffffffffffffffffffffff021916908373ffffffffffffffffffffffffffffffffffffffff160217905550808273ffffffffffffffffffffffffffffffffffffffff16610cfd83610692565b73ffffffffffffffffffffffffffffffffffffffff167f8c5be1e5ebec7d5bd14f71427d1e84f3dd0314c0f7b2291e5b200ac8c7c3b92560405160405180910390a45050565b6000610d4e82610c16565b610d8d576040517f08c379a0000000000000000000000000000000000000000000000000000000008152600401610d8490611d0f565b60405180910390fd5b6000610d9883610692565b90508073ffffffffffffffffffffffffffffffffffffffff168473ffffffffffffffffffffffffffffffffffffffff161480610e0757508373ffffffffffffffffffffffffffffffffffffffff16610def84610467565b73ffffffffffffffffffffffffffffffffffffffff16145b80610e185750610e178185610b18565b5b91505092915050565b8273ffffffffffffffffffffffffffffffffffffffff16610e4182610692565b73ffffffffffffffffffffffffffffffffffffffff1614610e97576040517f08c379a0000000000000000000000000000000000000000000000000000000008152600401610e8e90611dcf565b60405180910390fd5b600073ffffffffffffffffffffffffffffffffffffffff168273ffffffffffffffffffffffffffffffffffffffff161415610f07576040517f08c379a0000000000000000000000000000000000000000000000000000000008152600401610efe90611ccf565b60405180910390fd5b610f1283838361146b565b610f1d600082610c8a565b6001600360008573ffffffffffffffffffffffffffffffffffffffff1673ffffffffffffffffffffffffffffffffffffffff1681526020019081526020016000206000828254610f6d9190611f8a565b925050819055506001600360008473ffffffffffffffffffffffffffffffffffffffff1673ffffffffffffffffffffffffffffffffffffffff1681526020019081526020016000206000828254610fc49190611f03565b92505081905550816002600083815260200190815260200160002060006101000a81548173ffffffffffffffffffffffffffffffffffffffff021916908373ffffffffffffffffffffffffffffffffffffffff160217905550808273ffffffffffffffffffffffffffffffffffffffff168473ffffffffffffffffffffffffffffffffffffffff167fddf252ad1be2c89b69c2b068fc378daa952ba7f163c4a11628f55a4df523b3ef60405160405180910390a4505050565b600073ffffffffffffffffffffffffffffffffffffffff168273ffffffffffffffffffffffffffffffffffffffff1614156110ed576040517f08c379a00000000000000000000000000000000000000000000000000000000081526004016110e490611d8f565b60405180910390fd5b6110f681610c16565b15611136576040517f08c379a000000000000000000000000000000000000000000000000000000000815260040161112d90611caf565b60405180910390fd5b6111426000838361146b565b6001600360008473ffffffffffffffffffffffffffffffffffffffff1673ffffffffffffffffffffffffffffffffffffffff16815260200190815260200160002060008282546111929190611f03565b92505081905550816002600083815260200190815260200160002060006101000a81548173ffffffffffffffffffffffffffffffffffffffff021916908373ffffffffffffffffffffffffffffffffffffffff160217905550808273ffffffffffffffffffffffffffffffffffffffff16600073ffffffffffffffffffffffffffffffffffffffff167fddf252ad1be2c89b69c2b068fc378daa952ba7f163c4a11628f55a4df523b3ef60405160405180910390a45050565b611256848484610e21565b61126284848484611470565b6112a1576040517f08c379a000000000000000000000000000000000000000000000000000000000815260040161129890611c8f565b60405180910390fd5b50505050565b606060405180602001604052806000815250905090565b60606000821415611306576040518060400160405280600181526020017f30000000000000000000000000000000000000000000000000000000000000008152509050611466565b600082905060005b60008214611338578080611321906120d7565b915050600a826113319190611f59565b915061130e565b60008167ffffffffffffffff81111561137a577f4e487b7100000000000000000000000000000000000000000000000000000000600052604160045260246000fd5b6040519080825280601f01601f1916602001820160405280156113ac5781602001600182028036833780820191505090505b5090505b6000851461145f576001826113c59190611f8a565b9150600a856113d49190612120565b60306113e09190611f03565b60f81b81838151811061141c577f4e487b7100000000000000000000000000000000000000000000000000000000600052603260045260246000fd5b60200101907effffffffffffffffffffffffffffffffffffffffffffffffffffffffffffff1916908160001a905350600a856114589190611f59565b94506113b0565b8093505050505b919050565b505050565b60006114918473ffffffffffffffffffffffffffffffffffffffff16611607565b156115fa578373ffffffffffffffffffffffffffffffffffffffff1663150b7a026114ba610c82565b8786866040518563ffffffff1660e01b81526004016114dc9493929190611c06565b602060405180830381600087803b1580156114f657600080fd5b505af192505050801561152757506040513d601f19601f8201168201806040525081019061152491906118bb565b60015b6115aa573d8060008114611557576040519150601f19603f3d011682016040523d82523d6000602084013e61155c565b606091505b506000815114156115a2576040517f08c379a000000000000000000000000000000000000000000000000000000000815260040161159990611c8f565b60405180910390fd5b805181602001fd5b63150b7a0260e01b7bffffffffffffffffffffffffffffffffffffffffffffffffffffffff1916817bffffffffffffffffffffffffffffffffffffffffffffffffffffffff1916149150506115ff565b600190505b949350505050565b600080823b905060008111915050919050565b600061162d61162884611e8f565b611e6a565b90508281526020810184848401111561164557600080fd5b611650848285612032565b509392505050565b600081359050611667816125fe565b92915050565b60008135905061167c81612615565b92915050565b6000813590506116918161262c565b92915050565b6000815190506116a68161262c565b92915050565b600082601f8301126116bd57600080fd5b81356116cd84826020860161161a565b91505092915050565b6000813590506116e581612643565b92915050565b6000602082840312156116fd57600080fd5b600061170b84828501611658565b91505092915050565b6000806040838503121561172757600080fd5b600061173585828601611658565b925050602061174685828601611658565b9150509250929050565b60008060006060848603121561176557600080fd5b600061177386828701611658565b935050602061178486828701611658565b9250506040611795868287016116d6565b9150509250925092565b600080600080608085870312156117b557600080fd5b60006117c387828801611658565b94505060206117d487828801611658565b93505060406117e5878288016116d6565b925050606085013567ffffffffffffffff81111561180257600080fd5b61180e878288016116ac565b91505092959194509250565b6000806040838503121561182d57600080fd5b600061183b85828601611658565b925050602061184c8582860161166d565b9150509250929050565b6000806040838503121561186957600080fd5b600061187785828601611658565b9250506020611888858286016116d6565b9150509250929050565b6000602082840312156118a457600080fd5b60006118b284828501611682565b91505092915050565b6000602082840312156118cd57600080fd5b60006118db84828501611697565b91505092915050565b6000602082840312156118f657600080fd5b6000611904848285016116d6565b91505092915050565b61191681611fbe565b82525050565b61192581611fd0565b82525050565b600061193682611ec0565b6119408185611ed6565b9350611950818560208601612041565b6119598161220d565b840191505092915050565b600061196f82611ecb565b6119798185611ee7565b9350611989818560208601612041565b6119928161220d565b840191505092915050565b60006119a882611ecb565b6119b28185611ef8565b93506119c2818560208601612041565b80840191505092915050565b60006119db603283611ee7565b91506119e68261221e565b604082019050919050565b60006119fe601c83611ee7565b9150611a098261226d565b602082019050919050565b6000611a21602483611ee7565b9150611a2c82612296565b604082019050919050565b6000611a44601983611ee7565b9150611a4f826122e5565b602082019050919050565b6000611a67602c83611ee7565b9150611a728261230e565b604082019050919050565b6000611a8a603883611ee7565b9150611a958261235d565b604082019050919050565b6000611aad602a83611ee7565b9150611ab8826123ac565b604082019050919050565b6000611ad0602983611ee7565b9150611adb826123fb565b604082019050919050565b6000611af3602083611ee7565b9150611afe8261244a565b602082019050919050565b6000611b16602c83611ee7565b9150611b2182612473565b604082019050919050565b6000611b39602983611ee7565b9150611b44826124c2565b604082019050919050565b6000611b5c602f83611ee7565b9150611b6782612511565b604082019050919050565b6000611b7f602183611ee7565b9150611b8a82612560565b604082019050919050565b6000611ba2603183611ee7565b9150611bad826125af565b604082019050919050565b611bc181612028565b82525050565b6000611bd3828561199d565b9150611bdf828461199d565b91508190509392505050565b6000602082019050611c00600083018461190d565b92915050565b6000608082019050611c1b600083018761190d565b611c28602083018661190d565b611c356040830185611bb8565b8181036060830152611c47818461192b565b905095945050505050565b6000602082019050611c67600083018461191c565b92915050565b60006020820190508181036000830152611c878184611964565b905092915050565b60006020820190508181036000830152611ca8816119ce565b9050919050565b60006020820190508181036000830152611cc8816119f1565b9050919050565b60006020820190508181036000830152611ce881611a14565b9050919050565b60006020820190508181036000830152611d0881611a37565b9050919050565b60006020820190508181036000830152611d2881611a5a565b9050919050565b60006020820190508181036000830152611d4881611a7d565b9050919050565b60006020820190508181036000830152611d6881611aa0565b9050919050565b60006020820190508181036000830152611d8881611ac3565b9050919050565b60006020820190508181036000830152611da881611ae6565b9050919050565b60006020820190508181036000830152611dc881611b09565b9050919050565b60006020820190508181036000830152611de881611b2c565b9050919050565b60006020820190508181036000830152611e0881611b4f565b9050919050565b60006020820190508181036000830152611e2881611b72565b9050919050565b60006020820190508181036000830152611e4881611b95565b9050919050565b6000602082019050611e646000830184611bb8565b92915050565b6000611e74611e85565b9050611e8082826120a6565b919050565b6000604051905090565b600067ffffffffffffffff821115611eaa57611ea96121de565b5b611eb38261220d565b9050602081019050919050565b600081519050919050565b600081519050919050565b600082825260208201905092915050565b600082825260208201905092915050565b600081905092915050565b6000611f0e82612028565b9150611f1983612028565b9250827fffffffffffffffffffffffffffffffffffffffffffffffffffffffffffffffff03821115611f4e57611f4d612151565b5b828201905092915050565b6000611f6482612028565b9150611f6f83612028565b925082611f7f57611f7e612180565b5b828204905092915050565b6000611f9582612028565b9150611fa083612028565b925082821015611fb357611fb2612151565b5b828203905092915050565b6000611fc982612008565b9050919050565b60008115159050919050565b60007fffffffff0000000000000000000000000000000000000000000000000000000082169050919050565b600073ffffffffffffffffffffffffffffffffffffffff82169050919050565b6000819050919050565b82818337600083830152505050565b60005b8381101561205f578082015181840152602081019050612044565b8381111561206e576000848401525b50505050565b6000600282049050600182168061208c57607f821691505b602082108114156120a05761209f6121af565b5b50919050565b6120af8261220d565b810181811067ffffffffffffffff821117156120ce576120cd6121de565b5b80604052505050565b60006120e282612028565b91507fffffffffffffffffffffffffffffffffffffffffffffffffffffffffffffffff82141561211557612114612151565b5b600182019050919050565b600061212b82612028565b915061213683612028565b92508261214657612145612180565b5b828206905092915050565b7f4e487b7100000000000000000000000000000000000000000000000000000000600052601160045260246000fd5b7f4e487b7100000000000000000000000000000000000000000000000000000000600052601260045260246000fd5b7f4e487b7100000000000000000000000000000000000000000000000000000000600052602260045260246000fd5b7f4e487b7100000000000000000000000000000000000000000000000000000000600052604160045260246000fd5b6000601f19601f8301169050919050565b7f4552433732313a207472616e7366657220746f206e6f6e20455243373231526560008201527f63656976657220696d706c656d656e7465720000000000000000000000000000602082015250565b7f4552433732313a20746f6b656e20616c7265616479206d696e74656400000000600082015250565b7f4552433732313a207472616e7366657220746f20746865207a65726f2061646460008201527f7265737300000000000000000000000000000000000000000000000000000000602082015250565b7f4552433732313a20617070726f766520746f2063616c6c657200000000000000600082015250565b7f4552433732313a206f70657261746f7220717565727920666f72206e6f6e657860008201527f697374656e7420746f6b656e0000000000000000000000000000000000000000602082015250565b7f4552433732313a20617070726f76652063616c6c6572206973206e6f74206f7760008201527f6e6572206e6f7220617070726f76656420666f7220616c6c0000000000000000602082015250565b7f4552433732313a2062616c616e636520717565727920666f7220746865207a6560008201527f726f206164647265737300000000000000000000000000000000000000000000602082015250565b7f4552433732313a206f776e657220717565727920666f72206e6f6e657869737460008201527f656e7420746f6b656e0000000000000000000000000000000000000000000000602082015250565b7f4552433732313a206d696e7420746f20746865207a65726f2061646472657373600082015250565b7f4552433732313a20617070726f76656420717565727920666f72206e6f6e657860008201527f697374656e7420746f6b656e0000000000000000000000000000000000000000602082015250565b7f4552433732313a207472616e73666572206f6620746f6b656e2074686174206960008201527f73206e6f74206f776e0000000000000000000000000000000000000000000000602082015250565b7f4552433732314d657461646174613a2055524920717565727920666f72206e6f60008201527f6e6578697374656e7420746f6b656e0000000000000000000000000000000000602082015250565b7f4552433732313a20617070726f76616c20746f2063757272656e74206f776e6560008201527f7200000000000000000000000000000000000000000000000000000000000000602082015250565b7f4552433732313a207472616e736665722063616c6c6572206973206e6f74206f60008201527f776e6572206e6f7220617070726f766564000000000000000000000000000000602082015250565b61260781611fbe565b811461261257600080fd5b50565b61261e81611fd0565b811461262957600080fd5b50565b61263581611fdc565b811461264057600080fd5b50565b61264c81612028565b811461265757600080fd5b5056fea2646970667358221220271d7be4b4c2ffd18c680cd99cea79b6de0bf992703fbae035da370c856f1bd064736f6c63430008010033",
  "immutableReferences": {},
  "source": "\r\n// SPDX-License-Identifier: MIT\r\npragma solidity ^0.8.0;\r\n\r\nimport '@openzeppelin/contracts/token/ERC721/ERC721.sol';\r\n\r\ncontract NFT is ERC721 {\r\n  constructor(\r\n    string memory name, \r\n    string memory symbol\r\n  ) \r\n  ERC721(name, symbol) \r\n  {}\r\n\r\n  function mint(address to, uint tokenId) external {\r\n    _mint(to, tokenId);\r\n  }\r\n}",
  "sourcePath": "C:/Users/hp/Desktop/erc721-openzeppelin/contracts/NFT.sol",
  "compiler": {
    "name": "solc",
    "version": "0.8.1+commit.df193b15.Emscripten.clang"
  },
  "schemaVersion": "3.4.1",
  "updatedAt": "2021-06-12T14:45:40.316Z",
  "devdoc": {
    "kind": "dev",
    "methods": {
      "approve(address,uint256)": {
        "details": "See {IERC721-approve}."
      },
      "balanceOf(address)": {
        "details": "See {IERC721-balanceOf}."
      },
      "getApproved(uint256)": {
        "details": "See {IERC721-getApproved}."
      },
      "isApprovedForAll(address,address)": {
        "details": "See {IERC721-isApprovedForAll}."
      },
      "name()": {
        "details": "See {IERC721Metadata-name}."
      },
      "ownerOf(uint256)": {
        "details": "See {IERC721-ownerOf}."
      },
      "safeTransferFrom(address,address,uint256)": {
        "details": "See {IERC721-safeTransferFrom}."
      },
      "safeTransferFrom(address,address,uint256,bytes)": {
        "details": "See {IERC721-safeTransferFrom}."
      },
      "setApprovalForAll(address,bool)": {
        "details": "See {IERC721-setApprovalForAll}."
      },
      "supportsInterface(bytes4)": {
        "details": "See {IERC165-supportsInterface}."
      },
      "symbol()": {
        "details": "See {IERC721Metadata-symbol}."
      },
      "tokenURI(uint256)": {
        "details": "See {IERC721Metadata-tokenURI}."
      },
      "transferFrom(address,address,uint256)": {
        "details": "See {IERC721-transferFrom}."
      }
    },
    "version": 1
  },
  "userdoc": {
    "kind": "user",
    "methods": {},
    "version": 1
  }
}