{
  "contractName": "RFT",
  "abi": [
    {
      "inputs": [
        {
          "internalType": "string",
          "name": "_name",
          "type": "string"
        },
        {
          "internalType": "string",
          "name": "_symbol",
          "type": "string"
        },
        {
          "internalType": "address",
          "name": "_nftAddress",
          "type": "address"
        },
        {
          "internalType": "uint256",
          "name": "_nftId",
          "type": "uint256"
        },
        {
          "internalType": "uint256",
          "name": "_icoSharePrice",
          "type": "uint256"
        },
        {
          "internalType": "uint256",
          "name": "_icoShareSupply",
          "type": "uint256"
        },
        {
          "internalType": "address",
          "name": "_daiAddress",
          "type": "address"
        }
      ],
      "stateMutability": "nonpayable",
      "type": "constructor"
    },
    {
      "anonymous": false,
      "inputs": [
        {
          "indexed": true,
          "internalType": "address",
          "name": "owner",
          "type": "address"
        },
        {
          "indexed": true,
          "internalType": "address",
          "name": "spender",
          "type": "address"
        },
        {
          "indexed": false,
          "internalType": "uint256",
          "name": "value",
          "type": "uint256"
        }
      ],
      "name": "Approval",
      "type": "event"
    },
    {
      "anonymous": false,
      "inputs": [
        {
          "indexed": true,
          "internalType": "address",
          "name": "from",
          "type": "address"
        },
        {
          "indexed": true,
          "internalType": "address",
          "name": "to",
          "type": "address"
        },
        {
          "indexed": false,
          "internalType": "uint256",
          "name": "value",
          "type": "uint256"
        }
      ],
      "name": "Transfer",
      "type": "event"
    },
    {
      "inputs": [],
      "name": "admin",
      "outputs": [
        {
          "internalType": "address",
          "name": "",
          "type": "address"
        }
      ],
      "stateMutability": "view",
      "type": "function"
    },
    {
      "inputs": [
        {
          "internalType": "address",
          "name": "owner",
          "type": "address"
        },
        {
          "internalType": "address",
          "name": "spender",
          "type": "address"
        }
      ],
      "name": "allowance",
      "outputs": [
        {
          "internalType": "uint256",
          "name": "",
          "type": "uint256"
        }
      ],
      "stateMutability": "view",
      "type": "function"
    },
    {
      "inputs": [
        {
          "internalType": "address",
          "name": "spender",
          "type": "address"
        },
        {
          "internalType": "uint256",
          "name": "amount",
          "type": "uint256"
        }
      ],
      "name": "approve",
      "outputs": [
        {
          "internalType": "bool",
          "name": "",
          "type": "bool"
        }
      ],
      "stateMutability": "nonpayable",
      "type": "function"
    },
    {
      "inputs": [
        {
          "internalType": "address",
          "name": "account",
          "type": "address"
        }
      ],
      "name": "balanceOf",
      "outputs": [
        {
          "internalType": "uint256",
          "name": "",
          "type": "uint256"
        }
      ],
      "stateMutability": "view",
      "type": "function"
    },
    {
      "inputs": [],
      "name": "dai",
      "outputs": [
        {
          "internalType": "contract IERC20",
          "name": "",
          "type": "address"
        }
      ],
      "stateMutability": "view",
      "type": "function"
    },
    {
      "inputs": [],
      "name": "decimals",
      "outputs": [
        {
          "internalType": "uint8",
          "name": "",
          "type": "uint8"
        }
      ],
      "stateMutability": "view",
      "type": "function"
    },
    {
      "inputs": [
        {
          "internalType": "address",
          "name": "spender",
          "type": "address"
        },
        {
          "internalType": "uint256",
          "name": "subtractedValue",
          "type": "uint256"
        }
      ],
      "name": "decreaseAllowance",
      "outputs": [
        {
          "internalType": "bool",
          "name": "",
          "type": "bool"
        }
      ],
      "stateMutability": "nonpayable",
      "type": "function"
    },
    {
      "inputs": [],
      "name": "icoEnd",
      "outputs": [
        {
          "internalType": "uint256",
          "name": "",
          "type": "uint256"
        }
      ],
      "stateMutability": "view",
      "type": "function"
    },
    {
      "inputs": [],
      "name": "icoSharePrice",
      "outputs": [
        {
          "internalType": "uint256",
          "name": "",
          "type": "uint256"
        }
      ],
      "stateMutability": "view",
      "type": "function"
    },
    {
      "inputs": [],
      "name": "icoShareSupply",
      "outputs": [
        {
          "internalType": "uint256",
          "name": "",
          "type": "uint256"
        }
      ],
      "stateMutability": "view",
      "type": "function"
    },
    {
      "inputs": [
        {
          "internalType": "address",
          "name": "spender",
          "type": "address"
        },
        {
          "internalType": "uint256",
          "name": "addedValue",
          "type": "uint256"
        }
      ],
      "name": "increaseAllowance",
      "outputs": [
        {
          "internalType": "bool",
          "name": "",
          "type": "bool"
        }
      ],
      "stateMutability": "nonpayable",
      "type": "function"
    },
    {
      "inputs": [],
      "name": "name",
      "outputs": [
        {
          "internalType": "string",
          "name": "",
          "type": "string"
        }
      ],
      "stateMutability": "view",
      "type": "function"
    },
    {
      "inputs": [],
      "name": "nft",
      "outputs": [
        {
          "internalType": "contract IERC721",
          "name": "",
          "type": "address"
        }
      ],
      "stateMutability": "view",
      "type": "function"
    },
    {
      "inputs": [],
      "name": "nftId",
      "outputs": [
        {
          "internalType": "uint256",
          "name": "",
          "type": "uint256"
        }
      ],
      "stateMutability": "view",
      "type": "function"
    },
    {
      "inputs": [],
      "name": "symbol",
      "outputs": [
        {
          "internalType": "string",
          "name": "",
          "type": "string"
        }
      ],
      "stateMutability": "view",
      "type": "function"
    },
    {
      "inputs": [],
      "name": "totalSupply",
      "outputs": [
        {
          "internalType": "uint256",
          "name": "",
          "type": "uint256"
        }
      ],
      "stateMutability": "view",
      "type": "function"
    },
    {
      "inputs": [
        {
          "internalType": "address",
          "name": "recipient",
          "type": "address"
        },
        {
          "internalType": "uint256",
          "name": "amount",
          "type": "uint256"
        }
      ],
      "name": "transfer",
      "outputs": [
        {
          "internalType": "bool",
          "name": "",
          "type": "bool"
        }
      ],
      "stateMutability": "nonpayable",
      "type": "function"
    },
    {
      "inputs": [
        {
          "internalType": "address",
          "name": "sender",
          "type": "address"
        },
        {
          "internalType": "address",
          "name": "recipient",
          "type": "address"
        },
        {
          "internalType": "uint256",
          "name": "amount",
          "type": "uint256"
        }
      ],
      "name": "transferFrom",
      "outputs": [
        {
          "internalType": "bool",
          "name": "",
          "type": "bool"
        }
      ],
      "stateMutability": "nonpayable",
      "type": "function"
    },
    {
      "inputs": [],
      "name": "startIco",
      "outputs": [],
      "stateMutability": "nonpayable",
      "type": "function"
    },
    {
      "inputs": [
        {
          "internalType": "uint256",
          "name": "shareAmount",
          "type": "uint256"
        }
      ],
      "name": "buyShare",
      "outputs": [],
      "stateMutability": "nonpayable",
      "type": "function"
    },
    {
      "inputs": [],
      "name": "withdrawIcoProfits",
      "outputs": [],
      "stateMutability": "nonpayable",
      "type": "function"
    }
  ],
  "bytecode": "0x60806040523480156200001157600080fd5b5060405162002718380380620027188339818101604052810190620000379190620002a2565b868681600390805190602001906200005192919062000152565b5080600490805190602001906200006a92919062000152565b5050508360088190555084600960006101000a81548173ffffffffffffffffffffffffffffffffffffffff021916908373ffffffffffffffffffffffffffffffffffffffff160217905550826005819055508160068190555080600a60006101000a81548173ffffffffffffffffffffffffffffffffffffffff021916908373ffffffffffffffffffffffffffffffffffffffff16021790555033600b60006101000a81548173ffffffffffffffffffffffffffffffffffffffff021916908373ffffffffffffffffffffffffffffffffffffffff1602179055505050505050505062000563565b828054620001609062000454565b90600052602060002090601f016020900481019282620001845760008555620001d0565b82601f106200019f57805160ff1916838001178555620001d0565b82800160010185558215620001d0579182015b82811115620001cf578251825591602001919060010190620001b2565b5b509050620001df9190620001e3565b5090565b5b80821115620001fe576000816000905550600101620001e4565b5090565b6000620002196200021384620003aa565b62000381565b9050828152602081018484840111156200023257600080fd5b6200023f8482856200041e565b509392505050565b60008151905062000258816200052f565b92915050565b600082601f8301126200027057600080fd5b81516200028284826020860162000202565b91505092915050565b6000815190506200029c8162000549565b92915050565b600080600080600080600060e0888a031215620002be57600080fd5b600088015167ffffffffffffffff811115620002d957600080fd5b620002e78a828b016200025e565b975050602088015167ffffffffffffffff8111156200030557600080fd5b620003138a828b016200025e565b9650506040620003268a828b0162000247565b9550506060620003398a828b016200028b565b94505060806200034c8a828b016200028b565b93505060a06200035f8a828b016200028b565b92505060c0620003728a828b0162000247565b91505092959891949750929550565b60006200038d620003a0565b90506200039b82826200048a565b919050565b6000604051905090565b600067ffffffffffffffff821115620003c857620003c7620004ef565b5b620003d3826200051e565b9050602081019050919050565b6000620003ed82620003f4565b9050919050565b600073ffffffffffffffffffffffffffffffffffffffff82169050919050565b6000819050919050565b60005b838110156200043e57808201518184015260208101905062000421565b838111156200044e576000848401525b50505050565b600060028204905060018216806200046d57607f821691505b60208210811415620004845762000483620004c0565b5b50919050565b62000495826200051e565b810181811067ffffffffffffffff82111715620004b757620004b6620004ef565b5b80604052505050565b7f4e487b7100000000000000000000000000000000000000000000000000000000600052602260045260246000fd5b7f4e487b7100000000000000000000000000000000000000000000000000000000600052604160045260246000fd5b6000601f19601f8301169050919050565b6200053a81620003e0565b81146200054657600080fd5b50565b620005548162000414565b81146200056057600080fd5b50565b6121a580620005736000396000f3fe608060405234801561001057600080fd5b50600436106101375760003560e01c806370a08231116100b8578063a9ed6e9a1161007c578063a9ed6e9a14610342578063c6bc51821461035e578063dd62ed3e1461037c578063f4b9fa75146103ac578063f851a440146103ca578063ff83ab29146103e857610137565b806370a082311461028a57806389311e6f146102ba57806395d89b41146102c4578063a457c2d7146102e2578063a9059cbb1461031257610137565b806323b872dd116100ff57806323b872dd146101d0578063313ce56714610200578063395093511461021e57806347ccca021461024e57806357b6e9661461026c57610137565b80630563451a1461013c57806306fdde031461015a578063095ea7b31461017857806318160ddd146101a85780631fed217d146101c6575b600080fd5b610144610406565b6040516101519190611b64565b60405180910390f35b61016261040c565b60405161016f91906119a2565b60405180910390f35b610192600480360381019061018d91906115c5565b61049e565b60405161019f9190611951565b60405180910390f35b6101b06104bc565b6040516101bd9190611b64565b60405180910390f35b6101ce6104c6565b005b6101ea60048036038101906101e59190611576565b610778565b6040516101f79190611951565b60405180910390f35b610208610879565b6040516102159190611b7f565b60405180910390f35b610238600480360381019061023391906115c5565b610882565b6040516102459190611951565b60405180910390f35b61025661092e565b6040516102639190611987565b60405180910390f35b610274610954565b6040516102819190611b64565b60405180910390f35b6102a4600480360381019061029f9190611511565b61095a565b6040516102b19190611b64565b60405180910390f35b6102c26109a2565b005b6102cc610adc565b6040516102d991906119a2565b60405180910390f35b6102fc60048036038101906102f791906115c5565b610b6e565b6040516103099190611951565b60405180910390f35b61032c600480360381019061032791906115c5565b610c62565b6040516103399190611951565b60405180910390f35b61035c6004803603810190610357919061162a565b610c80565b005b610366610e33565b6040516103739190611b64565b60405180910390f35b6103966004803603810190610391919061153a565b610e39565b6040516103a39190611b64565b60405180910390f35b6103b4610ec0565b6040516103c1919061196c565b60405180910390f35b6103d2610ee6565b6040516103df91906118d6565b60405180910390f35b6103f0610f0c565b6040516103fd9190611b64565b60405180910390f35b60075481565b60606003805461041b90611d6a565b80601f016020809104026020016040519081016040528092919081815260200182805461044790611d6a565b80156104945780601f1061046957610100808354040283529160200191610494565b820191906000526020600020905b81548152906001019060200180831161047757829003601f168201915b5050505050905090565b60006104b26104ab610f12565b8484610f1a565b6001905092915050565b6000600254905090565b600b60009054906101000a900473ffffffffffffffffffffffffffffffffffffffff1673ffffffffffffffffffffffffffffffffffffffff163373ffffffffffffffffffffffffffffffffffffffff1614610556576040517f08c379a000000000000000000000000000000000000000000000000000000000815260040161054d90611a44565b60405180910390fd5b600754421161059a576040517f08c379a000000000000000000000000000000000000000000000000000000000815260040161059190611a64565b60405180910390fd5b6000600a60009054906101000a900473ffffffffffffffffffffffffffffffffffffffff1673ffffffffffffffffffffffffffffffffffffffff166370a08231306040518263ffffffff1660e01b81526004016105f791906118d6565b60206040518083038186803b15801561060f57600080fd5b505afa158015610623573d6000803e3d6000fd5b505050506040513d601f19601f820116820180604052508101906106479190611653565b9050600081111561072557600a60009054906101000a900473ffffffffffffffffffffffffffffffffffffffff1673ffffffffffffffffffffffffffffffffffffffff1663a9059cbb600b60009054906101000a900473ffffffffffffffffffffffffffffffffffffffff16836040518363ffffffff1660e01b81526004016106d1929190611928565b602060405180830381600087803b1580156106eb57600080fd5b505af11580156106ff573d6000803e3d6000fd5b505050506040513d601f19601f820116820180604052508101906107239190611601565b505b600061072f6104bc565b60065461073c9190611c66565b9050600081111561077457610773600b60009054906101000a900473ffffffffffffffffffffffffffffffffffffffff16826110e5565b5b5050565b6000610785848484611239565b6000600160008673ffffffffffffffffffffffffffffffffffffffff1673ffffffffffffffffffffffffffffffffffffffff16815260200190815260200160002060006107d0610f12565b73ffffffffffffffffffffffffffffffffffffffff1673ffffffffffffffffffffffffffffffffffffffff16815260200190815260200160002054905082811015610850576040517f08c379a000000000000000000000000000000000000000000000000000000000815260040161084790611a84565b60405180910390fd5b61086d8561085c610f12565b85846108689190611c66565b610f1a565b60019150509392505050565b60006012905090565b600061092461088f610f12565b84846001600061089d610f12565b73ffffffffffffffffffffffffffffffffffffffff1673ffffffffffffffffffffffffffffffffffffffff16815260200190815260200160002060008873ffffffffffffffffffffffffffffffffffffffff1673ffffffffffffffffffffffffffffffffffffffff1681526020019081526020016000205461091f9190611bb6565b610f1a565b6001905092915050565b600960009054906101000a900473ffffffffffffffffffffffffffffffffffffffff1681565b60055481565b60008060008373ffffffffffffffffffffffffffffffffffffffff1673ffffffffffffffffffffffffffffffffffffffff168152602001908152602001600020549050919050565b600b60009054906101000a900473ffffffffffffffffffffffffffffffffffffffff1673ffffffffffffffffffffffffffffffffffffffff163373ffffffffffffffffffffffffffffffffffffffff1614610a32576040517f08c379a0000000000000000000000000000000000000000000000000000000008152600401610a2990611a44565b60405180910390fd5b600960009054906101000a900473ffffffffffffffffffffffffffffffffffffffff1673ffffffffffffffffffffffffffffffffffffffff166323b872dd33306008546040518463ffffffff1660e01b8152600401610a93939291906118f1565b600060405180830381600087803b158015610aad57600080fd5b505af1158015610ac1573d6000803e3d6000fd5b5050505062093a8042610ad49190611bb6565b600781905550565b606060048054610aeb90611d6a565b80601f0160208091040260200160405190810160405280929190818152602001828054610b1790611d6a565b8015610b645780601f10610b3957610100808354040283529160200191610b64565b820191906000526020600020905b815481529060010190602001808311610b4757829003601f168201915b5050505050905090565b60008060016000610b7d610f12565b73ffffffffffffffffffffffffffffffffffffffff1673ffffffffffffffffffffffffffffffffffffffff16815260200190815260200160002060008573ffffffffffffffffffffffffffffffffffffffff1673ffffffffffffffffffffffffffffffffffffffff16815260200190815260200160002054905082811015610c3a576040517f08c379a0000000000000000000000000000000000000000000000000000000008152600401610c3190611b24565b60405180910390fd5b610c57610c45610f12565b858584610c529190611c66565b610f1a565b600191505092915050565b6000610c76610c6f610f12565b8484611239565b6001905092915050565b600060075411610cc5576040517f08c379a0000000000000000000000000000000000000000000000000000000008152600401610cbc90611ae4565b60405180910390fd5b600754421115610d0a576040517f08c379a0000000000000000000000000000000000000000000000000000000008152600401610d0190611a04565b60405180910390fd5b60065481610d166104bc565b610d209190611bb6565b1115610d61576040517f08c379a0000000000000000000000000000000000000000000000000000000008152600401610d5890611b04565b60405180910390fd5b600060055482610d719190611c0c565b9050600a60009054906101000a900473ffffffffffffffffffffffffffffffffffffffff1673ffffffffffffffffffffffffffffffffffffffff166323b872dd3330846040518463ffffffff1660e01b8152600401610dd2939291906118f1565b602060405180830381600087803b158015610dec57600080fd5b505af1158015610e00573d6000803e3d6000fd5b505050506040513d601f19601f82011682018060405250810190610e249190611601565b50610e2f33836110e5565b5050565b60085481565b6000600160008473ffffffffffffffffffffffffffffffffffffffff1673ffffffffffffffffffffffffffffffffffffffff16815260200190815260200160002060008373ffffffffffffffffffffffffffffffffffffffff1673ffffffffffffffffffffffffffffffffffffffff16815260200190815260200160002054905092915050565b600a60009054906101000a900473ffffffffffffffffffffffffffffffffffffffff1681565b600b60009054906101000a900473ffffffffffffffffffffffffffffffffffffffff1681565b60065481565b600033905090565b600073ffffffffffffffffffffffffffffffffffffffff168373ffffffffffffffffffffffffffffffffffffffff161415610f8a576040517f08c379a0000000000000000000000000000000000000000000000000000000008152600401610f8190611ac4565b60405180910390fd5b600073ffffffffffffffffffffffffffffffffffffffff168273ffffffffffffffffffffffffffffffffffffffff161415610ffa576040517f08c379a0000000000000000000000000000000000000000000000000000000008152600401610ff1906119e4565b60405180910390fd5b80600160008573ffffffffffffffffffffffffffffffffffffffff1673ffffffffffffffffffffffffffffffffffffffff16815260200190815260200160002060008473ffffffffffffffffffffffffffffffffffffffff1673ffffffffffffffffffffffffffffffffffffffff168152602001908152602001600020819055508173ffffffffffffffffffffffffffffffffffffffff168373ffffffffffffffffffffffffffffffffffffffff167f8c5be1e5ebec7d5bd14f71427d1e84f3dd0314c0f7b2291e5b200ac8c7c3b925836040516110d89190611b64565b60405180910390a3505050565b600073ffffffffffffffffffffffffffffffffffffffff168273ffffffffffffffffffffffffffffffffffffffff161415611155576040517f08c379a000000000000000000000000000000000000000000000000000000000815260040161114c90611b44565b60405180910390fd5b611161600083836114b8565b80600260008282546111739190611bb6565b92505081905550806000808473ffffffffffffffffffffffffffffffffffffffff1673ffffffffffffffffffffffffffffffffffffffff16815260200190815260200160002060008282546111c89190611bb6565b925050819055508173ffffffffffffffffffffffffffffffffffffffff16600073ffffffffffffffffffffffffffffffffffffffff167fddf252ad1be2c89b69c2b068fc378daa952ba7f163c4a11628f55a4df523b3ef8360405161122d9190611b64565b60405180910390a35050565b600073ffffffffffffffffffffffffffffffffffffffff168373ffffffffffffffffffffffffffffffffffffffff1614156112a9576040517f08c379a00000000000000000000000000000000000000000000000000000000081526004016112a090611aa4565b60405180910390fd5b600073ffffffffffffffffffffffffffffffffffffffff168273ffffffffffffffffffffffffffffffffffffffff161415611319576040517f08c379a0000000000000000000000000000000000000000000000000000000008152600401611310906119c4565b60405180910390fd5b6113248383836114b8565b60008060008573ffffffffffffffffffffffffffffffffffffffff1673ffffffffffffffffffffffffffffffffffffffff168152602001908152602001600020549050818110156113aa576040517f08c379a00000000000000000000000000000000000000000000000000000000081526004016113a190611a24565b60405180910390fd5b81816113b69190611c66565b6000808673ffffffffffffffffffffffffffffffffffffffff1673ffffffffffffffffffffffffffffffffffffffff16815260200190815260200160002081905550816000808573ffffffffffffffffffffffffffffffffffffffff1673ffffffffffffffffffffffffffffffffffffffff16815260200190815260200160002060008282546114469190611bb6565b925050819055508273ffffffffffffffffffffffffffffffffffffffff168473ffffffffffffffffffffffffffffffffffffffff167fddf252ad1be2c89b69c2b068fc378daa952ba7f163c4a11628f55a4df523b3ef846040516114aa9190611b64565b60405180910390a350505050565b505050565b6000813590506114cc8161212a565b92915050565b6000815190506114e181612141565b92915050565b6000813590506114f681612158565b92915050565b60008151905061150b81612158565b92915050565b60006020828403121561152357600080fd5b6000611531848285016114bd565b91505092915050565b6000806040838503121561154d57600080fd5b600061155b858286016114bd565b925050602061156c858286016114bd565b9150509250929050565b60008060006060848603121561158b57600080fd5b6000611599868287016114bd565b93505060206115aa868287016114bd565b92505060406115bb868287016114e7565b9150509250925092565b600080604083850312156115d857600080fd5b60006115e6858286016114bd565b92505060206115f7858286016114e7565b9150509250929050565b60006020828403121561161357600080fd5b6000611621848285016114d2565b91505092915050565b60006020828403121561163c57600080fd5b600061164a848285016114e7565b91505092915050565b60006020828403121561166557600080fd5b6000611673848285016114fc565b91505092915050565b61168581611c9a565b82525050565b61169481611cac565b82525050565b6116a381611cef565b82525050565b6116b281611d13565b82525050565b60006116c382611b9a565b6116cd8185611ba5565b93506116dd818560208601611d37565b6116e681611dfa565b840191505092915050565b60006116fe602383611ba5565b915061170982611e0b565b604082019050919050565b6000611721602283611ba5565b915061172c82611e5a565b604082019050919050565b6000611744600f83611ba5565b915061174f82611ea9565b602082019050919050565b6000611767602683611ba5565b915061177282611ed2565b604082019050919050565b600061178a600a83611ba5565b915061179582611f21565b602082019050919050565b60006117ad601483611ba5565b91506117b882611f4a565b602082019050919050565b60006117d0602883611ba5565b91506117db82611f73565b604082019050919050565b60006117f3602583611ba5565b91506117fe82611fc2565b604082019050919050565b6000611816602483611ba5565b915061182182612011565b604082019050919050565b6000611839601383611ba5565b915061184482612060565b602082019050919050565b600061185c601683611ba5565b915061186782612089565b602082019050919050565b600061187f602583611ba5565b915061188a826120b2565b604082019050919050565b60006118a2601f83611ba5565b91506118ad82612101565b602082019050919050565b6118c181611cd8565b82525050565b6118d081611ce2565b82525050565b60006020820190506118eb600083018461167c565b92915050565b6000606082019050611906600083018661167c565b611913602083018561167c565b61192060408301846118b8565b949350505050565b600060408201905061193d600083018561167c565b61194a60208301846118b8565b9392505050565b6000602082019050611966600083018461168b565b92915050565b6000602082019050611981600083018461169a565b92915050565b600060208201905061199c60008301846116a9565b92915050565b600060208201905081810360008301526119bc81846116b8565b905092915050565b600060208201905081810360008301526119dd816116f1565b9050919050565b600060208201905081810360008301526119fd81611714565b9050919050565b60006020820190508181036000830152611a1d81611737565b9050919050565b60006020820190508181036000830152611a3d8161175a565b9050919050565b60006020820190508181036000830152611a5d8161177d565b9050919050565b60006020820190508181036000830152611a7d816117a0565b9050919050565b60006020820190508181036000830152611a9d816117c3565b9050919050565b60006020820190508181036000830152611abd816117e6565b9050919050565b60006020820190508181036000830152611add81611809565b9050919050565b60006020820190508181036000830152611afd8161182c565b9050919050565b60006020820190508181036000830152611b1d8161184f565b9050919050565b60006020820190508181036000830152611b3d81611872565b9050919050565b60006020820190508181036000830152611b5d81611895565b9050919050565b6000602082019050611b7960008301846118b8565b92915050565b6000602082019050611b9460008301846118c7565b92915050565b600081519050919050565b600082825260208201905092915050565b6000611bc182611cd8565b9150611bcc83611cd8565b9250827fffffffffffffffffffffffffffffffffffffffffffffffffffffffffffffffff03821115611c0157611c00611d9c565b5b828201905092915050565b6000611c1782611cd8565b9150611c2283611cd8565b9250817fffffffffffffffffffffffffffffffffffffffffffffffffffffffffffffffff0483118215151615611c5b57611c5a611d9c565b5b828202905092915050565b6000611c7182611cd8565b9150611c7c83611cd8565b925082821015611c8f57611c8e611d9c565b5b828203905092915050565b6000611ca582611cb8565b9050919050565b60008115159050919050565b600073ffffffffffffffffffffffffffffffffffffffff82169050919050565b6000819050919050565b600060ff82169050919050565b6000611cfa82611d01565b9050919050565b6000611d0c82611cb8565b9050919050565b6000611d1e82611d25565b9050919050565b6000611d3082611cb8565b9050919050565b60005b83811015611d55578082015181840152602081019050611d3a565b83811115611d64576000848401525b50505050565b60006002820490506001821680611d8257607f821691505b60208210811415611d9657611d95611dcb565b5b50919050565b7f4e487b7100000000000000000000000000000000000000000000000000000000600052601160045260246000fd5b7f4e487b7100000000000000000000000000000000000000000000000000000000600052602260045260246000fd5b6000601f19601f8301169050919050565b7f45524332303a207472616e7366657220746f20746865207a65726f206164647260008201527f6573730000000000000000000000000000000000000000000000000000000000602082015250565b7f45524332303a20617070726f766520746f20746865207a65726f20616464726560008201527f7373000000000000000000000000000000000000000000000000000000000000602082015250565b7f49434f2069732066696e69736865640000000000000000000000000000000000600082015250565b7f45524332303a207472616e7366657220616d6f756e742065786365656473206260008201527f616c616e63650000000000000000000000000000000000000000000000000000602082015250565b7f6f6e6c792061646d696e00000000000000000000000000000000000000000000600082015250565b7f49434f206e6f742066696e697368656420796574000000000000000000000000600082015250565b7f45524332303a207472616e7366657220616d6f756e742065786365656473206160008201527f6c6c6f77616e6365000000000000000000000000000000000000000000000000602082015250565b7f45524332303a207472616e736665722066726f6d20746865207a65726f20616460008201527f6472657373000000000000000000000000000000000000000000000000000000602082015250565b7f45524332303a20617070726f76652066726f6d20746865207a65726f2061646460008201527f7265737300000000000000000000000000000000000000000000000000000000602082015250565b7f49434f206e6f7420737461727465642079657400000000000000000000000000600082015250565b7f6e6f7420656e6f75676820736861726573206c65667400000000000000000000600082015250565b7f45524332303a2064656372656173656420616c6c6f77616e63652062656c6f7760008201527f207a65726f000000000000000000000000000000000000000000000000000000602082015250565b7f45524332303a206d696e7420746f20746865207a65726f206164647265737300600082015250565b61213381611c9a565b811461213e57600080fd5b50565b61214a81611cac565b811461215557600080fd5b50565b61216181611cd8565b811461216c57600080fd5b5056fea2646970667358221220f385341cbc01bf79af08f1e023693a30fdbda2ffcf34e8a2273bc444c271216b64736f6c63430008010033",
  "immutableReferences": {},
  "source": "// SPDX-License-Identifier: MIT\r\npragma solidity ^0.8.0;\r\n\r\nimport '@openzeppelin/contracts/token/ERC721/IERC721.sol';\r\nimport '@openzeppelin/contracts/token/ERC20/IERC20.sol';\r\nimport '@openzeppelin/contracts/token/ERC20/ERC20.sol';\r\n\r\ncontract RFT is ERC20 {\r\n  //ICO & shares\r\n  uint public icoSharePrice;\r\n  uint public icoShareSupply;\r\n  uint public icoEnd;\r\n\r\n  //NFT & DAI\r\n  uint public nftId;\r\n  IERC721 public nft;\r\n  IERC20 public dai;\r\n\r\n  //other\r\n  address public admin;\r\n\r\n  constructor(\r\n    string memory _name,\r\n    string memory _symbol,\r\n    address _nftAddress, \r\n    uint _nftId,\r\n    uint _icoSharePrice,\r\n    uint _icoShareSupply,\r\n    address _daiAddress\r\n  ) \r\n  ERC20(_name, _symbol) \r\n  {\r\n    nftId = _nftId;\r\n    nft = IERC721(_nftAddress);\r\n    icoSharePrice = _icoSharePrice; \r\n    icoShareSupply = _icoShareSupply;\r\n    dai = IERC20(_daiAddress);\r\n    admin = msg.sender;\r\n  }\r\n\r\n  function startIco() external {\r\n    require(msg.sender == admin, 'only admin');\r\n    nft.transferFrom(msg.sender, address(this), nftId);\r\n    icoEnd = block.timestamp + 7 * 86400;\r\n  }\r\n\r\n  function buyShare(uint shareAmount) external {\r\n    require(icoEnd > 0, 'ICO not started yet');\r\n    require(block.timestamp <= icoEnd, 'ICO is finished');\r\n    require(totalSupply() + shareAmount <= icoShareSupply, 'not enough shares left');\r\n    uint daiAmount = shareAmount * icoSharePrice;\r\n    dai.transferFrom(msg.sender, address(this), daiAmount);\r\n    _mint(msg.sender, shareAmount);\r\n  }\r\n\r\n  function withdrawIcoProfits() external {\r\n    require(msg.sender == admin, 'only admin');\r\n    require(block.timestamp > icoEnd, 'ICO not finished yet'); \r\n    uint daiBalance = dai.balanceOf(address(this));\r\n    if(daiBalance > 0) {\r\n      dai.transfer(admin, daiBalance);\r\n    }\r\n    uint unsoldShareBalance = icoShareSupply - totalSupply();\r\n    if(unsoldShareBalance > 0) {\r\n      _mint(admin, unsoldShareBalance);\r\n    }\r\n  }\r\n}",
  "sourcePath": "C:/Users/hp/Desktop/erc721-openzeppelin/contracts/RFT.sol",
  "compiler": {
    "name": "solc",
    "version": "0.8.1+commit.df193b15.Emscripten.clang"
  },
  "schemaVersion": "3.4.1",
  "updatedAt": "2021-06-12T14:45:40.348Z",
  "devdoc": {
    "kind": "dev",
    "methods": {
      "allowance(address,address)": {
        "details": "See {IERC20-allowance}."
      },
      "approve(address,uint256)": {
        "details": "See {IERC20-approve}. Requirements: - `spender` cannot be the zero address."
      },
      "balanceOf(address)": {
        "details": "See {IERC20-balanceOf}."
      },
      "decimals()": {
        "details": "Returns the number of decimals used to get its user representation. For example, if `decimals` equals `2`, a balance of `505` tokens should be displayed to a user as `5,05` (`505 / 10 ** 2`). Tokens usually opt for a value of 18, imitating the relationship between Ether and Wei. This is the value {ERC20} uses, unless this function is overridden; NOTE: This information is only used for _display_ purposes: it in no way affects any of the arithmetic of the contract, including {IERC20-balanceOf} and {IERC20-transfer}."
      },
      "decreaseAllowance(address,uint256)": {
        "details": "Atomically decreases the allowance granted to `spender` by the caller. This is an alternative to {approve} that can be used as a mitigation for problems described in {IERC20-approve}. Emits an {Approval} event indicating the updated allowance. Requirements: - `spender` cannot be the zero address. - `spender` must have allowance for the caller of at least `subtractedValue`."
      },
      "increaseAllowance(address,uint256)": {
        "details": "Atomically increases the allowance granted to `spender` by the caller. This is an alternative to {approve} that can be used as a mitigation for problems described in {IERC20-approve}. Emits an {Approval} event indicating the updated allowance. Requirements: - `spender` cannot be the zero address."
      },
      "name()": {
        "details": "Returns the name of the token."
      },
      "symbol()": {
        "details": "Returns the symbol of the token, usually a shorter version of the name."
      },
      "totalSupply()": {
        "details": "See {IERC20-totalSupply}."
      },
      "transfer(address,uint256)": {
        "details": "See {IERC20-transfer}. Requirements: - `recipient` cannot be the zero address. - the caller must have a balance of at least `amount`."
      },
      "transferFrom(address,address,uint256)": {
        "details": "See {IERC20-transferFrom}. Emits an {Approval} event indicating the updated allowance. This is not required by the EIP. See the note at the beginning of {ERC20}. Requirements: - `sender` and `recipient` cannot be the zero address. - `sender` must have a balance of at least `amount`. - the caller must have allowance for ``sender``'s tokens of at least `amount`."
      }
    },
    "version": 1
  },
  "userdoc": {
    "kind": "user",
    "methods": {},
    "version": 1
  }
}